S01300006B6E6F636B5F6D656761382E73726563CA
S113000012C02CC02BC02AC029C028C027C026C0BB
S113001025C025C023C022C0FBC320C01FC01EC0F2
S11300201DC01CC01BC011241FBECFE5D4E0DEBF21
S1130030CDBF10E0A0E6B0E0E0EEF8E002C005902D
S11300400D92A03AB107D9F720E0A0EAB0E001C0D0
S11300501D92A33CB207E1F7A0D040C4D1CF1F92B8
S11300600F920FB60F9211248F939F93AF93BF9368
S11300708091A5009091A600A091A700B091A8003E
S11300800196A11DB11D8093A5009093A600A09395
S1130090A700B093A800BF91AF919F918F910F904B
S11300A00FBE0F901F9018958A30910509F443C034
S11300B094F4009709F45AC0019709F069C08FB706
S11300C080688FBF89B7816089BF83B7826083BF2F
S11300D01092A00051C08B30910509F1843691052E
S11300E009F056C08091A000811110C06091A50054
S11300F07091A6008091A7009091A80032E0969597
S11301008795779567953A95D1F708956091A10001
S11301107091A2008091A3009091A400089512BE52
S11301201092A5001092A6001092A7001092A800A9
S11301301092A00029C08091A5009091A600A091E2
S1130140A700B091A80022E0B695A795979587954A
S11301502A95D1F78093A1009093A200A093A300C5
S1130160B093A40081E08093A0000EC089B78E7F75
S113017089BF81E08093A0001092A5001092A60090
S11301801092A7001092A80060E070E0CB010895DF
S113019061E070E080E090E00895CF93DF93CDB705
S11301A0DEB7EC970FB6F894DEBF0FBECDBFA19AB1
S11301B0BA988E98969A8D9887B38C7F87BB83E381
S11301C090E062D32FEF3DE389E42150304080403A
S11301D0E1F700C00000E8E9F0E05D9BFECF81910B
S11301E08CB990E0E03AF907C1F7AFEFB9E6E8E17E
S11301F0A150B040E040E1F700C0000081E090E091
S113020053DF869982C1E8E8F0E05D9BFECF8191DF
S11302108CB920E0E039F207C1F73FEF81EE94E0BA
S1130220315080409040E1F700C00000859BFECF34
S1130230869BFECF81E090E037DF84E690E034DFF8
S11302406093AB007093AC008093AD009093AE00CC
S113025084E690E0B29B28C027DF0091AB001091A8
S1130260AC002091AD003091AE00601B710B820B8D
S1130270930B613177428105910550F3E8E7F0E093
S11302805D9BFECF81918CB9B0E0E038FB07C1F7EC
S1130290EFEFF1EE24E0E150F0402040E1F700C040
S11302A00000859BFECF31C1FFDE6093AB007093ED
S11302B0AC008093AD009093AE00B29B06C08091D9
S11302C0A900803108F44FC063C084E690E0ECDEFE
S11302D00091AB001091AC002091AD003091AE00C4
S11302E0601B710B820B930B6233710581059105C1
S11302F098F10091A90010E084E690E0D5DEF801C1
S1130300EE0FFF1FEE0FFF1FA1E0B0E0AC0FBD1F0B
S1130310EA0FFB1F0091AB001091AC002091AD00DF
S11303203091AE00601B710B820B930B6083718361
S1130330828393838091A9008F5F8093A900B29BED
S1130340FECF84E690E0B0DE6093AB007093AC0027
S11303508093AD009093AE008091A900B299AFCF85
S11303608823E1F3ACCF84E690E09EDE0091AB00FD
S11303701091AC002091AD003091AE00601B710B68
S1130380820B930B613177428105910508F495CF77
S1130390C980DA80EB80FC804091A90050E0FE0126
S11303A0319620E030E00DC081919191A191B191FD
S11303B08C159D05AE05BF0510F46C017D012F5F02
S11303C03F4F2417350784F3260137017694679449
S11303D057944794FE0131965F0100EB10E0409181
S11303E0A900842F90E09801205B3040281739073A
S11303F0ECF4D5016D917D918D919D915D01A701E5
S113040096014AD2233031054105510510F08BE0A5
S113041006C04616570668067906C8F381E0F80157
S113042081938F015D9BFECF8CB9D9CFF4E6CF16B3
S1130430D104E104F10418F4E8E7F0E00DC08FEF13
S1130440840F8F30C8F7809176008F5F840F80937C
S11304507600E0E7F0E014C05D9BFECF81918CB99B
S113046020E0E038F207C1F73FEF81EE94E031502D
S113047080409040E1F700C00000859BFECF45C05E
S11304805D9BFECF81918CB9A0E0E837FA07C1F7F4
S1130490BFEFE1EEF4E0B150E040F040E1F700C01E
S11304A00000859BFECFE0E8F0E05D9BFECF8191EC
S11304B08CB920E0E838F207C1F73FEF81EE94E011
S11304C0315080409040E1F700C00000859BFECF92
S11304D0E199FECF1FBA1EBA8091A9008DBBE29AA2
S11304E0E19AE0EBF0E080E090E02091A90030E0B8
S11304F08217930754F4E199FECF01969FBB8EBBFC
S113050021912DBBE29AE19AF0CFA99AE199FECF0D
S11305101FBA1EBAE09A8DB38093A900E0EBF0E015
S113052080E090E02091A90030E0821793074CF41A
S1130530E199FECF01969FBB8EBBE09A2DB3219328
S1130540F1CFAFEFB9E6E8E1A150B040E040E1F708
S113055000C000001092AF001092AA00E0E9F0E0A1
S11305605D9BFECF81918CB920E0E839F207C1F799
S11305703FEF81EE94E0315080409040E1F700C0BD
S11305800000859BFECF77247394B299FECF84E656
S113059090E08ADD6093AB007093AC008093AD0073
S11305A09093AE00F12CB29942C084E690E07CDDD9
S11305B00091AB001091AC002091AD003091AE00E1
S11305C0601B710B820B930B6233710581059105DE
S11305D050F184E690E068DDE1E0F0E0EC0FFD1F0F
S11305E0A4E0FA9EE00DF11D11240091AB001091DE
S11305F0AC002091AD003091AE00601B710B820BFA
S1130600930B6083718382839383F394B29BFECFB5
S113061084E690E049DD6093AB007093AC00809376
S1130620AD009093AE00B29902C0FF20E1F3BFE0A9
S1130630BF15B8F484E690E037DD0091AB0010916B
S1130640AC002091AD003091AE00601B710B820BA9
S1130650930B0F2D10E0613D774081059105B8F4AF
S113066046C084E690E020DD0091AB001091AC0020
S11306702091AD003091AE00601B710B820B930B87
S1130680613D77408105910508F48DCFD3CF8091EA
S1130690A900F8122CC0C980DA80EB80FC80FE012E
S11306A0319620E030E02017310734F1160127019C
S11306B056944794379427949E012F5F3F4F4901E6
S11306C0A12CB12CA016B1062CF1F090AF00E0EBF8
S11306D0F0E09E012F5F3F4FCF01805B9040801779
S11306E09107ECF1F092AF00FF2009F44BC0FE013A
S11306F0319680E090E080C081919191A191B19177
S11307008C159D05AE05BF0510F46C017D012F5FAE
S11307103F4FC9CFD4016D917D918D919C91A701DB
S11307209601BAD0233031054105510528F08BE0FC
S113073090E0A0E0B0E009C0261637064806590646
S1130740B0F381E090E0A0E0B0E0F40181939193F4
S1130750A193B1934F01FFEFAF1ABF0AB3CFD901F1
S11307604D915D916D917D919D01819190E0A0E00D
S1130770B0E0481759076A077B0709F4ADCFFF2497
S1130780F394AACF8091AA0081111BC0A9987092FA
S1130790AA001092AF00E8E6F0E05D9BFECF8191E5
S11307A08CB9B0E0E037FB07C1F7EFEFF1EE24E0DE
S11307B0E150F0402040E1F700C00000859BFECFEF
S11307C096CFA99A1092AA001092AF00E0E6F0E04A
S11307D05D9BFECF81918CB930E0E836F307C1F719
S11307E08FEF91EEA4E081509040A040E1F700C06B
S11307F00000859BFECF7BCF8017910734F41192C4
S11308001192119211920196F7CF1092AF00BDCEC2
S11308101F920F920FB60F9211248F939F93EF9311
S1130820FF93E091C100F091C2008081918118167C
S11308301906C4F4E091BF00F091C00080818CB926
S11308408091BF009091C00001969093C000809366
S1130850BF00E091C100F091C200808191810197B5
S113086091838083E091C100F091C20080819181E5
S1130870892B09F45598FF91EF919F918F910F90D7
S11308800FBE0F901F90189590BD89B988E18AB961
S113089086E880BD78940895A1E21A2EAA1BBB1B9A
S11308A0FD010DC0AA1FBB1FEE1FFF1FA217B30738
S11308B0E407F50720F0A21BB30BE40BF50B661F4E
S11308C0771F881F991F1A9469F760957095809512
S11308D090959B01AC01BD01CF010895F894FFCF21
S11308E07EFF0603000008EF7EFF0603000007EF0B
S11308F07EFF0603000008EF7EFF0603000005EFFD
S11309007EFF0603000003EF7EFF0603000002EFF4
S11309107EFF0603000001EF7EFF0609000002EFE0
S9030000FC
